:100000000C9434000C9449000C9449000C94490061
:100010000C9449000C9449000C9449000C9449003C
:100020000C9449000C9449000C9449000C9449002C
:100030000C9449000C9449000C9449000C9449001C
:100040000C9449000C9449000C9449000C9449000C
:100050000C9449000C9449000C9449000C944900FC
:100060000C9449000C94490011241FBECFEFD8E036
:10007000DEBFCDBF11E0A0E0B1E0E8E6F4E002C0F1
:1000800005900D92A637B107D9F70E941A020C9479
:1000900032020C940000299A8AE18A95F1F700C097
:1000A00029988AE18A95F1F700C008959BB182955D
:1000B000807F9F70892B8BB9611519F0289A0C9459
:1000C0004B002898FCCFCF93C82F60E082958F70AB
:1000D0000E94560060E08C2F8F700E94560087ECC3
:1000E00090E00197F1F700C00000CF910895CF9301
:1000F000C82F61E082958F700E94560061E08C2FBE
:100100008F700E94560087EC90E00197F1F700C0D5
:100110000000CF910895209A219A8AB1806F8AB900
:10012000229A2A9A2FEF80E792E021508040904057
:10013000E1F700C0000060E083E00E9456008FE11C
:100140009EE40197F1F700C0000060E083E00E94A8
:1001500056008FE19EE40197F1F700C0000060E0D7
:1001600083E00E9456008FE19EE40197F1F700C002
:10017000000060E082E00E94560088E20E94630076
:100180008CE00E94630086E00E94630081E00E9490
:1001900063008FE39FE10197F1F700C0000008952D
:1001A000811104C080E8860F0C94630080ECFBCFC3
:1001B000CF93DF93EC018991811103C0DF91CF913F
:1001C00008950E947700F7CF81E00E9463008FE3DB
:1001D0009FE10197F1F700C0000008950F931F936E
:1001E000CF93DF938B01880F880F880F80640E9464
:1001F0006300E801085F1F4F89910E947700C017D4
:10020000D107D1F780E8DF91CF911F910F910C9426
:10021000630080E480937C0087E880937A000895EF
:1002200080917A00806480937A0080917A0086FDC4
:10023000FCCF809178009091790008950E94100180
:100240009C018233910580F0883C910578F020393B
:1002500081E0380768F0283582E0380758F020320E
:10026000334050F080E0089581E0089582E00895E1
:1002700083E0089584E0089585E00895EF92FF9269
:100280000F931F93CF93DF938C01EB0180E80E94C3
:100290006300BE0184E00E94EE00BE01685F7F4FF4
:1002A00085E00E94EE00BE01605F7F4F86E00E9405
:1002B000EE00BE01685E7F4F87E00E94EE0078018D
:1002C000C0E0F70181917F010E947700CF3011F0EB
:1002D000CF5FF7CF80EC0E946300E801609610E0EA
:1002E00089910E9477001F3011F01F5FF9CF80ECD9
:1002F000DF91CF911F910F91FF90EF900C946300CD
:10030000CF93DF93EC016D8188E0689FB0011124E9
:100310006A5F7F4F6C0F7D1F8C810E94EE0098E01A
:10032000988381E089839A838B8368E0DF91CF9102
:100330000C94D0000F931F93CF93DF93EC018B01AC
:10034000411509F44EC088818A8399819B8344308A
:10035000C1F5811521F093E09D83815088836D81E3
:1003600028E0629FB00111246A5F7F4F6C0F7D1FF0
:1003700080E00E94EE006A818B810E94D000EB81B8
:100380008A8190E1E99FF0011124E00FF11FE80F4D
:10039000F11D80810E947700688189810E94D000D0
:1003A00080E00E9477002FEF82E597E021508040A7
:1003B0009040E1F700C00000DF91CF911F910F91B5
:1003C0000895413031F48F3050F695E09D838F5F72
:1003D000C5CF423031F5911511F21D8291509983AC
:1003E000BECF8D818330D9F0853011F484E08D83C8
:1003F0006D8128E0629FB00111246A5F7F4F6C0F0E
:100400007D1F80E00E94EE00688189810E94D000FB
:1004100080E0DF91CF911F910F910C94770082E0E3
:10042000E6CF433009F09BCF911199CF81E08D83C6
:10043000898395CF0E948B000E94090166E371E0D9
:1004400086E591E00E943E0180E091E00E948001FB
:100450000E941E01482F66E571E080E091E00E9455
:080460009A01F6CFF894FFCFDA
:1004680000000000000000040E0E0E0A0A0000043E
:100478000E0E0E0A0A0000040E0E0E0C0C000004EC
:100488000E0E0E0C0A0000040E0E0E0606000004E6
:100498000E0E0E060A00000304080B0408081806CE
:1004A800010119060102040300010000030F0C10EA
:1004B8001C101810181C4020245468655F4C6F628B
:1004C800627920200405B720202020202020202029
:0604D80020202020060791
:00000001FF
